{
  "contractName": "PaperGram",
  "abi": [
    {
      "inputs": [],
      "stateMutability": "nonpayable",
      "type": "constructor"
    },
    {
      "anonymous": false,
      "inputs": [
        {
          "indexed": false,
          "internalType": "uint256",
          "name": "id",
          "type": "uint256"
        },
        {
          "indexed": false,
          "internalType": "uint256",
          "name": "price",
          "type": "uint256"
        },
        {
          "indexed": false,
          "internalType": "string",
          "name": "hashes",
          "type": "string"
        },
        {
          "indexed": false,
          "internalType": "string",
          "name": "cover",
          "type": "string"
        },
        {
          "indexed": false,
          "internalType": "string",
          "name": "title",
          "type": "string"
        },
        {
          "indexed": false,
          "internalType": "string",
          "name": "author",
          "type": "string"
        },
        {
          "indexed": false,
          "internalType": "address",
          "name": "owner",
          "type": "address"
        }
      ],
      "name": "favoritesUploaded",
      "type": "event"
    },
    {
      "anonymous": false,
      "inputs": [
        {
          "indexed": false,
          "internalType": "uint256",
          "name": "id",
          "type": "uint256"
        },
        {
          "indexed": false,
          "internalType": "string",
          "name": "hashes",
          "type": "string"
        },
        {
          "indexed": false,
          "internalType": "string",
          "name": "cover",
          "type": "string"
        },
        {
          "indexed": false,
          "internalType": "string",
          "name": "title",
          "type": "string"
        },
        {
          "indexed": false,
          "internalType": "address",
          "name": "author",
          "type": "address"
        }
      ],
      "name": "lockerUploaded",
      "type": "event"
    },
    {
      "anonymous": false,
      "inputs": [
        {
          "indexed": false,
          "internalType": "uint256",
          "name": "id",
          "type": "uint256"
        },
        {
          "indexed": false,
          "internalType": "uint256",
          "name": "price",
          "type": "uint256"
        },
        {
          "indexed": false,
          "internalType": "uint256",
          "name": "owner",
          "type": "uint256"
        },
        {
          "indexed": false,
          "internalType": "string",
          "name": "hashes",
          "type": "string"
        },
        {
          "indexed": false,
          "internalType": "string",
          "name": "cover",
          "type": "string"
        },
        {
          "indexed": false,
          "internalType": "string",
          "name": "title",
          "type": "string"
        },
        {
          "indexed": false,
          "internalType": "string",
          "name": "author",
          "type": "string"
        },
        {
          "indexed": false,
          "internalType": "address payable",
          "name": "author_address",
          "type": "address"
        }
      ],
      "name": "paperUploaded",
      "type": "event"
    },
    {
      "inputs": [
        {
          "internalType": "uint256",
          "name": "",
          "type": "uint256"
        }
      ],
      "name": "favorites",
      "outputs": [
        {
          "internalType": "uint256",
          "name": "id",
          "type": "uint256"
        },
        {
          "internalType": "uint256",
          "name": "price",
          "type": "uint256"
        },
        {
          "internalType": "string",
          "name": "hashes",
          "type": "string"
        },
        {
          "internalType": "string",
          "name": "cover",
          "type": "string"
        },
        {
          "internalType": "string",
          "name": "title",
          "type": "string"
        },
        {
          "internalType": "string",
          "name": "author",
          "type": "string"
        },
        {
          "internalType": "address",
          "name": "owner",
          "type": "address"
        }
      ],
      "stateMutability": "view",
      "type": "function",
      "constant": true
    },
    {
      "inputs": [],
      "name": "favoritesCount",
      "outputs": [
        {
          "internalType": "uint256",
          "name": "",
          "type": "uint256"
        }
      ],
      "stateMutability": "view",
      "type": "function",
      "constant": true
    },
    {
      "inputs": [
        {
          "internalType": "uint256",
          "name": "",
          "type": "uint256"
        }
      ],
      "name": "locker",
      "outputs": [
        {
          "internalType": "uint256",
          "name": "id",
          "type": "uint256"
        },
        {
          "internalType": "string",
          "name": "hashes",
          "type": "string"
        },
        {
          "internalType": "string",
          "name": "cover",
          "type": "string"
        },
        {
          "internalType": "string",
          "name": "title",
          "type": "string"
        },
        {
          "internalType": "address",
          "name": "author",
          "type": "address"
        }
      ],
      "stateMutability": "view",
      "type": "function",
      "constant": true
    },
    {
      "inputs": [],
      "name": "lockerCount",
      "outputs": [
        {
          "internalType": "uint256",
          "name": "",
          "type": "uint256"
        }
      ],
      "stateMutability": "view",
      "type": "function",
      "constant": true
    },
    {
      "inputs": [],
      "name": "name",
      "outputs": [
        {
          "internalType": "string",
          "name": "",
          "type": "string"
        }
      ],
      "stateMutability": "view",
      "type": "function",
      "constant": true
    },
    {
      "inputs": [],
      "name": "paperCount",
      "outputs": [
        {
          "internalType": "uint256",
          "name": "",
          "type": "uint256"
        }
      ],
      "stateMutability": "view",
      "type": "function",
      "constant": true
    },
    {
      "inputs": [
        {
          "internalType": "uint256",
          "name": "",
          "type": "uint256"
        }
      ],
      "name": "papers",
      "outputs": [
        {
          "internalType": "uint256",
          "name": "id",
          "type": "uint256"
        },
        {
          "internalType": "uint256",
          "name": "price",
          "type": "uint256"
        },
        {
          "internalType": "uint256",
          "name": "owner",
          "type": "uint256"
        },
        {
          "internalType": "string",
          "name": "hashes",
          "type": "string"
        },
        {
          "internalType": "string",
          "name": "cover",
          "type": "string"
        },
        {
          "internalType": "string",
          "name": "title",
          "type": "string"
        },
        {
          "internalType": "string",
          "name": "author",
          "type": "string"
        },
        {
          "internalType": "address payable",
          "name": "author_address",
          "type": "address"
        }
      ],
      "stateMutability": "view",
      "type": "function",
      "constant": true
    },
    {
      "inputs": [
        {
          "internalType": "uint256",
          "name": "_price",
          "type": "uint256"
        },
        {
          "internalType": "string",
          "name": "_hash",
          "type": "string"
        },
        {
          "internalType": "string",
          "name": "_cover",
          "type": "string"
        },
        {
          "internalType": "string",
          "name": "_title",
          "type": "string"
        },
        {
          "internalType": "string",
          "name": "_author",
          "type": "string"
        }
      ],
      "name": "uploadPaper",
      "outputs": [],
      "stateMutability": "nonpayable",
      "type": "function"
    },
    {
      "inputs": [
        {
          "internalType": "string",
          "name": "_hash",
          "type": "string"
        },
        {
          "internalType": "string",
          "name": "_cover",
          "type": "string"
        },
        {
          "internalType": "string",
          "name": "_title",
          "type": "string"
        }
      ],
      "name": "uploadLockerPaper",
      "outputs": [],
      "stateMutability": "nonpayable",
      "type": "function"
    },
    {
      "inputs": [
        {
          "internalType": "uint256",
          "name": "_id",
          "type": "uint256"
        }
      ],
      "name": "uploadFavorites",
      "outputs": [],
      "stateMutability": "nonpayable",
      "type": "function"
    },
    {
      "inputs": [
        {
          "internalType": "uint256",
          "name": "_id",
          "type": "uint256"
        }
      ],
      "name": "purchasePaper",
      "outputs": [],
      "stateMutability": "payable",
      "type": "function",
      "payable": true
    }
  ],
  "bytecode": "0x608060405260008055600060015560006002556040518060400160405280600981526020017f50617065724772616d0000000000000000000000000000000000000000000000815250600390805190602001906200005f92919062000074565b503480156200006d57600080fd5b5062000189565b828054620000829062000153565b90600052602060002090601f016020900481019282620000a65760008555620000f2565b82601f10620000c157805160ff1916838001178555620000f2565b82800160010185558215620000f2579182015b82811115620000f1578251825591602001919060010190620000d4565b5b50905062000101919062000105565b5090565b5b808211156200012057600081600090555060010162000106565b5090565b7f4e487b7100000000000000000000000000000000000000000000000000000000600052602260045260246000fd5b600060028204905060018216806200016c57607f821691505b6020821081141562000183576200018262000124565b5b50919050565b61213080620001996000396000f3fe60806040526004361061009c5760003560e01c806360c2cdf51161006457806360c2cdf5146101a75780638b92e843146101e8578063a56c2cb914610211578063c845eef91461023c578063ccd96eb614610265578063e4103a00146102905761009c565b806306fdde03146100a15780630e85f18c146100cc5780631e3d5589146100f55780633acc3b4d146101205780635e775a2714610163575b600080fd5b3480156100ad57600080fd5b506100b66102ac565b6040516100c391906119c9565b60405180910390f35b3480156100d857600080fd5b506100f360048036038101906100ee9190611b6a565b61033a565b005b34801561010157600080fd5b5061010a610599565b6040516101179190611c64565b60405180910390f35b34801561012c57600080fd5b5061014760048036038101906101429190611c7f565b61059f565b60405161015a9796959493929190611ced565b60405180910390f35b34801561016f57600080fd5b5061018a60048036038101906101859190611c7f565b610821565b60405161019e989796959493929190611d99565b60405180910390f35b3480156101b357600080fd5b506101ce60048036038101906101c99190611c7f565b610aa9565b6040516101df959493929190611e33565b60405180910390f35b3480156101f457600080fd5b5061020f600480360381019061020a9190611e9b565b610c97565b005b34801561021d57600080fd5b50610226610e58565b6040516102339190611c64565b60405180910390f35b34801561024857600080fd5b50610263600480360381019061025e9190611c7f565b610e5e565b005b34801561027157600080fd5b5061027a61131b565b6040516102879190611c64565b60405180910390f35b6102aa60048036038101906102a59190611c7f565b611321565b005b600380546102b990611f71565b80601f01602080910402602001604051908101604052809291908181526020018280546102e590611f71565b80156103325780601f1061030757610100808354040283529160200191610332565b820191906000526020600020905b81548152906001019060200180831161031557829003601f168201915b505050505081565b600084511161034857600080fd5b600082511161035657600080fd5b600081511161036457600080fd5b600083511161037257600080fd5b600073ffffffffffffffffffffffffffffffffffffffff163373ffffffffffffffffffffffffffffffffffffffff1614156103ac57600080fd5b600085116103b957600080fd5b6000808154809291906103cb90611fd2565b91905055506040518061010001604052806000548152602001868152602001600181526020018581526020018481526020018381526020018281526020013373ffffffffffffffffffffffffffffffffffffffff168152506004600080548152602001908152602001600020600082015181600001556020820151816001015560408201518160020155606082015181600301908051906020019061047192919061188d565b50608082015181600401908051906020019061048e92919061188d565b5060a08201518160050190805190602001906104ab92919061188d565b5060c08201518160060190805190602001906104c892919061188d565b5060e08201518160070160006101000a81548173ffffffffffffffffffffffffffffffffffffffff021916908373ffffffffffffffffffffffffffffffffffffffff1602179055509050507fd099d48f4feebb0e484e03609522fcd0492210a5325257741e597f920af651f360005486600187878787600460008054815260200190815260200160002060070160009054906101000a900473ffffffffffffffffffffffffffffffffffffffff1660405161058a989796959493929190612060565b60405180910390a15050505050565b60025481565b60066020528060005260406000206000915090508060000154908060010154908060020180546105ce90611f71565b80601f01602080910402602001604051908101604052809291908181526020018280546105fa90611f71565b80156106475780601f1061061c57610100808354040283529160200191610647565b820191906000526020600020905b81548152906001019060200180831161062a57829003601f168201915b50505050509080600301805461065c90611f71565b80601f016020809104026020016040519081016040528092919081815260200182805461068890611f71565b80156106d55780601f106106aa576101008083540402835291602001916106d5565b820191906000526020600020905b8154815290600101906020018083116106b857829003601f168201915b5050505050908060040180546106ea90611f71565b80601f016020809104026020016040519081016040528092919081815260200182805461071690611f71565b80156107635780601f1061073857610100808354040283529160200191610763565b820191906000526020600020905b81548152906001019060200180831161074657829003601f168201915b50505050509080600501805461077890611f71565b80601f01602080910402602001604051908101604052809291908181526020018280546107a490611f71565b80156107f15780601f106107c6576101008083540402835291602001916107f1565b820191906000526020600020905b8154815290600101906020018083116107d457829003601f168201915b5050505050908060060160009054906101000a900473ffffffffffffffffffffffffffffffffffffffff16905087565b600460205280600052604060002060009150905080600001549080600101549080600201549080600301805461085690611f71565b80601f016020809104026020016040519081016040528092919081815260200182805461088290611f71565b80156108cf5780601f106108a4576101008083540402835291602001916108cf565b820191906000526020600020905b8154815290600101906020018083116108b257829003601f168201915b5050505050908060040180546108e490611f71565b80601f016020809104026020016040519081016040528092919081815260200182805461091090611f71565b801561095d5780601f106109325761010080835404028352916020019161095d565b820191906000526020600020905b81548152906001019060200180831161094057829003601f168201915b50505050509080600501805461097290611f71565b80601f016020809104026020016040519081016040528092919081815260200182805461099e90611f71565b80156109eb5780601f106109c0576101008083540402835291602001916109eb565b820191906000526020600020905b8154815290600101906020018083116109ce57829003601f168201915b505050505090806006018054610a0090611f71565b80601f0160208091040260200160405190810160405280929190818152602001828054610a2c90611f71565b8015610a795780601f10610a4e57610100808354040283529160200191610a79565b820191906000526020600020905b815481529060010190602001808311610a5c57829003601f168201915b5050505050908060070160009054906101000a900473ffffffffffffffffffffffffffffffffffffffff16905088565b6005602052806000526040600020600091509050806000015490806001018054610ad290611f71565b80601f0160208091040260200160405190810160405280929190818152602001828054610afe90611f71565b8015610b4b5780601f10610b2057610100808354040283529160200191610b4b565b820191906000526020600020905b815481529060010190602001808311610b2e57829003601f168201915b505050505090806002018054610b6090611f71565b80601f0160208091040260200160405190810160405280929190818152602001828054610b8c90611f71565b8015610bd95780601f10610bae57610100808354040283529160200191610bd9565b820191906000526020600020905b815481529060010190602001808311610bbc57829003601f168201915b505050505090806003018054610bee90611f71565b80601f0160208091040260200160405190810160405280929190818152602001828054610c1a90611f71565b8015610c675780601f10610c3c57610100808354040283529160200191610c67565b820191906000526020600020905b815481529060010190602001808311610c4a57829003601f168201915b5050505050908060040160009054906101000a900473ffffffffffffffffffffffffffffffffffffffff16905085565b6000835111610ca557600080fd5b6000815111610cb357600080fd5b6000825111610cc157600080fd5b600073ffffffffffffffffffffffffffffffffffffffff163373ffffffffffffffffffffffffffffffffffffffff161415610cfb57600080fd5b60016000815480929190610d0e90611fd2565b91905055506040518060a0016040528060015481526020018481526020018381526020018281526020013373ffffffffffffffffffffffffffffffffffffffff16815250600560006001548152602001908152602001600020600082015181600001556020820151816001019080519060200190610d8d92919061188d565b506040820151816002019080519060200190610daa92919061188d565b506060820151816003019080519060200190610dc792919061188d565b5060808201518160040160006101000a81548173ffffffffffffffffffffffffffffffffffffffff021916908373ffffffffffffffffffffffffffffffffffffffff1602179055509050507f22255b2f6db4e174949745c1081bdfff6b55b36886685197016b4b0dce71ffcf60015484848433604051610e4b959493929190611e33565b60405180910390a1505050565b60005481565b60006004600083815260200190815260200160002060405180610100016040529081600082015481526020016001820154815260200160028201548152602001600382018054610ead90611f71565b80601f0160208091040260200160405190810160405280929190818152602001828054610ed990611f71565b8015610f265780601f10610efb57610100808354040283529160200191610f26565b820191906000526020600020905b815481529060010190602001808311610f0957829003601f168201915b50505050508152602001600482018054610f3f90611f71565b80601f0160208091040260200160405190810160405280929190818152602001828054610f6b90611f71565b8015610fb85780601f10610f8d57610100808354040283529160200191610fb8565b820191906000526020600020905b815481529060010190602001808311610f9b57829003601f168201915b50505050508152602001600582018054610fd190611f71565b80601f0160208091040260200160405190810160405280929190818152602001828054610ffd90611f71565b801561104a5780601f1061101f5761010080835404028352916020019161104a565b820191906000526020600020905b81548152906001019060200180831161102d57829003601f168201915b5050505050815260200160068201805461106390611f71565b80601f016020809104026020016040519081016040528092919081815260200182805461108f90611f71565b80156110dc5780601f106110b1576101008083540402835291602001916110dc565b820191906000526020600020905b8154815290600101906020018083116110bf57829003601f168201915b505050505081526020016007820160009054906101000a900473ffffffffffffffffffffffffffffffffffffffff1673ffffffffffffffffffffffffffffffffffffffff1673ffffffffffffffffffffffffffffffffffffffff16815250509050600081600001511180156111575750600054816000015111155b61116057600080fd5b6002600081548092919061117390611fd2565b91905055506040518060e0016040528060025481526020018260200151815260200182606001518152602001826080015181526020018260a0015181526020018260c0015181526020013373ffffffffffffffffffffffffffffffffffffffff168152506006600060025481526020019081526020016000206000820151816000015560208201518160010155604082015181600201908051906020019061121c92919061188d565b50606082015181600301908051906020019061123992919061188d565b50608082015181600401908051906020019061125692919061188d565b5060a082015181600501908051906020019061127392919061188d565b5060c08201518160060160006101000a81548173ffffffffffffffffffffffffffffffffffffffff021916908373ffffffffffffffffffffffffffffffffffffffff1602179055509050507f548af59600d6db0a5ffed22d34222fb7e22af503322d5e6d4a0731a7b8dbb7fd6002548260200151836060015184608001518560a001518660c001513360405161130f9796959493929190611ced565b60405180910390a15050565b60015481565b6000600460008381526020019081526020016000206040518061010001604052908160008201548152602001600182015481526020016002820154815260200160038201805461137090611f71565b80601f016020809104026020016040519081016040528092919081815260200182805461139c90611f71565b80156113e95780601f106113be576101008083540402835291602001916113e9565b820191906000526020600020905b8154815290600101906020018083116113cc57829003601f168201915b5050505050815260200160048201805461140290611f71565b80601f016020809104026020016040519081016040528092919081815260200182805461142e90611f71565b801561147b5780601f106114505761010080835404028352916020019161147b565b820191906000526020600020905b81548152906001019060200180831161145e57829003601f168201915b5050505050815260200160058201805461149490611f71565b80601f01602080910402602001604051908101604052809291908181526020018280546114c090611f71565b801561150d5780601f106114e25761010080835404028352916020019161150d565b820191906000526020600020905b8154815290600101906020018083116114f057829003601f168201915b5050505050815260200160068201805461152690611f71565b80601f016020809104026020016040519081016040528092919081815260200182805461155290611f71565b801561159f5780601f106115745761010080835404028352916020019161159f565b820191906000526020600020905b81548152906001019060200180831161158257829003601f168201915b505050505081526020016007820160009054906101000a900473ffffffffffffffffffffffffffffffffffffffff1673ffffffffffffffffffffffffffffffffffffffff1673ffffffffffffffffffffffffffffffffffffffff1681525050905060008160e001519050600082600001511180156116235750600054826000015111155b61162c57600080fd5b816020015134101561163d57600080fd5b3373ffffffffffffffffffffffffffffffffffffffff168173ffffffffffffffffffffffffffffffffffffffff16141561167657600080fd5b600182604001511461168757600080fd5b6000826040018181525050338260e0019073ffffffffffffffffffffffffffffffffffffffff16908173ffffffffffffffffffffffffffffffffffffffff16815250506000808154809291906116dc90611fd2565b9190505550600054826000018181525050816004600080548152602001908152602001600020600082015181600001556020820151816001015560408201518160020155606082015181600301908051906020019061173c92919061188d565b50608082015181600401908051906020019061175992919061188d565b5060a082015181600501908051906020019061177692919061188d565b5060c082015181600601908051906020019061179392919061188d565b5060e08201518160070160006101000a81548173ffffffffffffffffffffffffffffffffffffffff021916908373ffffffffffffffffffffffffffffffffffffffff1602179055509050508073ffffffffffffffffffffffffffffffffffffffff166108fc349081150290604051600060405180830381858888f19350505050158015611824573d6000803e3d6000fd5b507fd099d48f4feebb0e484e03609522fcd0492210a5325257741e597f920af651f360005483602001518460400151856060015186608001518760a001518860c001518960e00151604051611880989796959493929190611d99565b60405180910390a1505050565b82805461189990611f71565b90600052602060002090601f0160209004810192826118bb5760008555611902565b82601f106118d457805160ff1916838001178555611902565b82800160010185558215611902579182015b828111156119015782518255916020019190600101906118e6565b5b50905061190f9190611913565b5090565b5b8082111561192c576000816000905550600101611914565b5090565b600081519050919050565b600082825260208201905092915050565b60005b8381101561196a57808201518184015260208101905061194f565b83811115611979576000848401525b50505050565b6000601f19601f8301169050919050565b600061199b82611930565b6119a5818561193b565b93506119b581856020860161194c565b6119be8161197f565b840191505092915050565b600060208201905081810360008301526119e38184611990565b905092915050565b6000604051905090565b600080fd5b600080fd5b6000819050919050565b611a12816119ff565b8114611a1d57600080fd5b50565b600081359050611a2f81611a09565b92915050565b600080fd5b600080fd5b7f4e487b7100000000000000000000000000000000000000000000000000000000600052604160045260246000fd5b611a778261197f565b810181811067ffffffffffffffff82111715611a9657611a95611a3f565b5b80604052505050565b6000611aa96119eb565b9050611ab58282611a6e565b919050565b600067ffffffffffffffff821115611ad557611ad4611a3f565b5b611ade8261197f565b9050602081019050919050565b82818337600083830152505050565b6000611b0d611b0884611aba565b611a9f565b905082815260208101848484011115611b2957611b28611a3a565b5b611b34848285611aeb565b509392505050565b600082601f830112611b5157611b50611a35565b5b8135611b61848260208601611afa565b91505092915050565b600080600080600060a08688031215611b8657611b856119f5565b5b6000611b9488828901611a20565b955050602086013567ffffffffffffffff811115611bb557611bb46119fa565b5b611bc188828901611b3c565b945050604086013567ffffffffffffffff811115611be257611be16119fa565b5b611bee88828901611b3c565b935050606086013567ffffffffffffffff811115611c0f57611c0e6119fa565b5b611c1b88828901611b3c565b925050608086013567ffffffffffffffff811115611c3c57611c3b6119fa565b5b611c4888828901611b3c565b9150509295509295909350565b611c5e816119ff565b82525050565b6000602082019050611c796000830184611c55565b92915050565b600060208284031215611c9557611c946119f5565b5b6000611ca384828501611a20565b91505092915050565b600073ffffffffffffffffffffffffffffffffffffffff82169050919050565b6000611cd782611cac565b9050919050565b611ce781611ccc565b82525050565b600060e082019050611d02600083018a611c55565b611d0f6020830189611c55565b8181036040830152611d218188611990565b90508181036060830152611d358187611990565b90508181036080830152611d498186611990565b905081810360a0830152611d5d8185611990565b9050611d6c60c0830184611cde565b98975050505050505050565b6000611d8382611cac565b9050919050565b611d9381611d78565b82525050565b600061010082019050611daf600083018b611c55565b611dbc602083018a611c55565b611dc96040830189611c55565b8181036060830152611ddb8188611990565b90508181036080830152611def8187611990565b905081810360a0830152611e038186611990565b905081810360c0830152611e178185611990565b9050611e2660e0830184611d8a565b9998505050505050505050565b600060a082019050611e486000830188611c55565b8181036020830152611e5a8187611990565b90508181036040830152611e6e8186611990565b90508181036060830152611e828185611990565b9050611e916080830184611cde565b9695505050505050565b600080600060608486031215611eb457611eb36119f5565b5b600084013567ffffffffffffffff811115611ed257611ed16119fa565b5b611ede86828701611b3c565b935050602084013567ffffffffffffffff811115611eff57611efe6119fa565b5b611f0b86828701611b3c565b925050604084013567ffffffffffffffff811115611f2c57611f2b6119fa565b5b611f3886828701611b3c565b9150509250925092565b7f4e487b7100000000000000000000000000000000000000000000000000000000600052602260045260246000fd5b60006002820490506001821680611f8957607f821691505b60208210811415611f9d57611f9c611f42565b5b50919050565b7f4e487b7100000000000000000000000000000000000000000000000000000000600052601160045260246000fd5b6000611fdd826119ff565b91507fffffffffffffffffffffffffffffffffffffffffffffffffffffffffffffffff8214156120105761200f611fa3565b5b600182019050919050565b6000819050919050565b6000819050919050565b600061204a6120456120408461201b565b612025565b6119ff565b9050919050565b61205a8161202f565b82525050565b600061010082019050612076600083018b611c55565b612083602083018a611c55565b6120906040830189612051565b81810360608301526120a28188611990565b905081810360808301526120b68187611990565b905081810360a08301526120ca8186611990565b905081810360c08301526120de8185611990565b90506120ed60e0830184611d8a565b999850505050505050505056fea2646970667358221220c8ec0b58722d00169d7def771962d804e9bc6a28277682735e6f3ecd3b389af264736f6c634300080a0033",
  "immutableReferences": {},
  "source": "// SPDX-License-Identifier: MIT\r\n\r\npragma solidity ^0.8.10;\r\n\r\ncontract PaperGram{\r\n    uint public paperCount = 0;\r\n    uint public lockerCount =0;\r\n    uint public favoritesCount =0;\r\n    string public name = \"PaperGram\";\r\n    mapping(uint => Paper) public papers;\r\n    mapping(uint => LockerPaper) public locker;\r\n    mapping(uint => Favorites) public favorites;\r\n\r\n    constructor(){}\r\n\r\n    struct Paper {\r\n        uint id;\r\n        uint price;\r\n        uint owner;\r\n        string hashes;\r\n        string cover;\r\n        string title;\r\n        string author;\r\n        address payable author_address;\r\n    }\r\n\r\n    struct LockerPaper {\r\n        uint id;\r\n        string hashes;\r\n        string cover;\r\n        string title;\r\n        address author;\r\n    }\r\n\r\n    struct Favorites {\r\n        uint id;\r\n        uint price;\r\n        string hashes;\r\n        string cover;\r\n        string title;\r\n        string author;\r\n        address owner;\r\n    }\r\n\r\n    event paperUploaded(\r\n        uint id,\r\n        uint price,\r\n        uint owner,\r\n        string hashes,\r\n        string cover,\r\n        string title,\r\n        string author,\r\n        address payable author_address\r\n    );\r\n\r\n    event lockerUploaded(\r\n        uint id,\r\n        string hashes,\r\n        string cover,\r\n        string title,\r\n        address author\r\n    );\r\n\r\n    event favoritesUploaded(\r\n        uint id,\r\n        uint price,\r\n        string hashes,\r\n        string cover,\r\n        string title,\r\n        string author,\r\n        address owner\r\n    );\r\n\r\n    function uploadPaper(uint _price,string memory _hash,string memory _cover, string memory _title, string memory _author) public {\r\n        require(bytes(_hash).length > 0);\r\n        require(bytes(_title).length > 0);\r\n        require(bytes(_author).length > 0);\r\n        require(bytes(_cover).length > 0);\r\n        require(msg.sender!=address(0));\r\n        require(_price > 0);\r\n        paperCount++;\r\n        papers[paperCount] = Paper(paperCount,_price,1, _hash, _cover, _title,_author, payable(msg.sender));\r\n        emit paperUploaded(paperCount,_price,1, _hash, _cover ,_title,_author, papers[paperCount].author_address);\r\n    }\r\n\r\n    function uploadLockerPaper(string memory _hash,string memory _cover, string memory _title) public {\r\n        require(bytes(_hash).length > 0);\r\n        require(bytes(_title).length > 0);\r\n        require(bytes(_cover).length > 0);\r\n        require(msg.sender!=address(0));\r\n        lockerCount++;\r\n        locker[lockerCount] = LockerPaper(lockerCount, _hash,_cover, _title, msg.sender);\r\n        emit lockerUploaded(lockerCount, _hash,_cover, _title, msg.sender);\r\n    }\r\n\r\n    function uploadFavorites(uint _id) public{\r\n        Paper memory _paper = papers[_id];\r\n        require(_paper.id>0 && _paper.id<=paperCount);\r\n        favoritesCount++;\r\n        favorites[favoritesCount] = Favorites(favoritesCount,_paper.price,_paper.hashes,_paper.cover,_paper.title,_paper.author,msg.sender);\r\n        emit favoritesUploaded(favoritesCount,_paper.price,_paper.hashes,_paper.cover,_paper.title,_paper.author,msg.sender);\r\n    }\r\n\r\n    function purchasePaper(uint _id) public payable{\r\n        Paper memory _paper = papers[_id];\r\n        address payable _seller = _paper.author_address;\r\n        require(_paper.id>0 && _paper.id<=paperCount);\r\n        require(msg.value>=_paper.price);\r\n        require(_seller!=msg.sender);\r\n        require(_paper.owner==1);\r\n        _paper.owner=0;\r\n        _paper.author_address=payable(msg.sender);\r\n        paperCount++;\r\n        _paper.id=paperCount;\r\n        papers[paperCount]=_paper;\r\n        payable(address(_seller)).transfer(msg.value);\r\n        emit paperUploaded(paperCount, _paper.price,_paper.owner,_paper.hashes,_paper.cover, _paper.title,_paper.author, payable(_paper.author_address));\r\n    }\r\n\r\n}",
  "sourcePath": "Z:\\Blockchain\\project\\papergram\\src\\contracts\\PaperGram.sol",
  "compiler": {
    "name": "solc",
    "version": "0.8.10+commit.fc410830.Emscripten.clang"
  },
  "schemaVersion": "3.4.9",
  "updatedAt": "2022-09-10T11:44:10.284Z",
  "networkType": "ethereum",
  "devdoc": {
    "kind": "dev",
    "methods": {},
    "version": 1
  },
  "userdoc": {
    "kind": "user",
    "methods": {},
    "version": 1
  }
}